:100000000C9435000C945D000C945D000C945D0024
:100010000C945D000C945D000C945D000C945D00EC
:100020000C945D000C945D000C945D000C945D00DC
:100030000C945D000C945D000C945D000C945D00CC
:100040000C94F6010C945D000C94C4010C949E0178
:100050000C945D000C945D000C945D000C945D00AC
:100060000C945D000C945D006F0311241FBECFEF54
:10007000D8E0DEBFCDBF11E0A0E0B1E0ECE8F7E0F2
:1000800002C005900D92A634B107D9F721E0A6E48D
:10009000B1E001C01D92AC3EB207E1F710E0C5E34C
:1000A000D0E004C02197FE010E94BE03C433D107F3
:1000B000C9F70E9440020C94C4030C940000AF9254
:1000C000BF92CF92DF92EF92FF920F931F93CF9345
:1000D000DF936C017B018B01040F151FEB015E01A7
:1000E000AE18BF08C017D10759F06991D601ED913C
:1000F000FC910190F081E02DC6010995892B79F7DB
:10010000C501DF91CF911F910F91FF90EF90DF908C
:10011000CF90BF90AF900895FC01538D448D252F53
:1001200030E0842F90E0821B930B541710F0CF9691
:10013000089501970895FC01918D828D981761F0C3
:10014000A28DAE0FBF2FB11D5D968C91928D9F5FDA
:100150009F73928F90E008958FEF9FEF0895FC01B9
:10016000918D828D981731F0828DE80FF11D858D6C
:1001700090E008958FEF9FEF0895FC01918D228DFF
:10018000892F90E0805C9F4F821B91098F73992784
:1001900008958FE491E00E94BD0021E0892B09F4CD
:1001A00020E0822F089580E090E0892B29F00E94C2
:1001B000C90081110C9400000895FC01A48DA80FC2
:1001C000B92FB11DA35ABF4F2C91848D90E0019699
:1001D0008F739927848FA689B7892C93A089B189B9
:1001E0008C91837080648C93938D848D981306C05A
:1001F0000288F389E02D80818F7D80830895EF92BE
:10020000FF920F931F93CF93DF93EC0181E0888FD0
:100210009B8D8C8D98131AC0E889F989808185FFA0
:1002200015C09FB7F894EE89FF896083E889F98942
:1002300080818370806480839FBF81E090E0DF9144
:10024000CF911F910F91FF90EF900895F62E0B8D97
:1002500010E00F5F1F4F0F731127E02E8C8D8E1152
:100260000CC00FB607FCFACFE889F989808185FFB9
:10027000F5CFCE010E94DD00F1CFEB8DEC0FFD2F0D
:10028000F11DE35AFF4FF0829FB7F8940B8FEA8974
:10029000FB8980818062CFCFCF93DF93EC01888D83
:1002A0008823B9F0AA89BB89E889F9898C9185FDF1
:1002B00003C0808186FD0DC00FB607FCF7CF8C917F
:1002C00085FFF2CF808185FFEDCFCE010E94DD005A
:1002D000E9CFDF91CF9108953FB7F89480914B011A
:1002E00090914C01A0914D01B0914E0126B5A89B73
:1002F00005C02F3F19F00196A11DB11D3FBFBA2FB8
:10030000A92F982F8827BC01CD01620F711D811D77
:10031000911D42E0660F771F881F991F4A95D1F7FC
:100320000895FC0101900020E9F73197AF01481BC7
:10033000590BBC018FE491E00C945F001F920F9267
:100340000FB60F9211242F933F934F935F936F93A8
:100350007F938F939F93AF93BF93EF93FF938FE41C
:1003600091E00E94DD00FF91EF91BF91AF919F91CD
:100370008F917F916F915F914F913F912F910F904E
:100380000FBE0F901F9018951F920F920FB60F92ED
:1003900011242F938F939F93EF93FF93E0915F012D
:1003A000F09160018081E0916501F091660182FD2C
:1003B0001BC09081809168018F5F8F7320916901CC
:1003C000821741F0E0916801F0E0E15BFE4F958F0C
:1003D00080936801FF91EF919F918F912F910F90E2
:1003E0000FBE0F901F9018958081F4CF1F920F922F
:1003F0000FB60F9211242F933F938F939F93AF9338
:10040000BF938091470190914801A0914901B0911B
:100410004A013091460123E0230F2D3758F501960C
:10042000A11DB11D2093460180934701909348017F
:10043000A0934901B0934A0180914B0190914C01E6
:10044000A0914D01B0914E010196A11DB11D809367
:100450004B0190934C01A0934D01B0934E01BF917D
:10046000AF919F918F913F912F910F900FBE0F9061
:100470001F90189526E8230F0296A11DB11DD2CF1B
:10048000CF93DF93CDB7DEB7A1970FB6F894DEBF59
:100490000FBECDBF789484B5826084BD84B5816081
:1004A00084BD85B5826085BD85B5816085BD80913F
:1004B0006E00816080936E001092810080918100B7
:1004C00082608093810080918100816080938100AF
:1004D000809180008160809380008091B100846071
:1004E0008093B1008091B00081608093B0008091D2
:1004F0007A00846080937A0080917A008260809391
:100500007A0080917A00816080937A0080917A00ED
:10051000806880937A001092C100E0915F01F091B1
:10052000600182E08083E0915B01F0915C011082C8
:10053000E0915D01F0915E018FEC80831092670184
:10054000E0916301F091640186E08083E0916101B4
:10055000F0916201808180618083E0916101F0917E
:100560006201808188608083E0916101F091620185
:10057000808180688083E0916101F09162018081D7
:100580008F7D808382E191E00E94910183E291E07E
:100590000E9491019AE0492E512C612C712C20E08F
:1005A000222E20E0322E8FE491E00E94BD00892BA4
:1005B00009F48CC08FE491E00E949B008C016C01D7
:1005C000990FEE08FF08F7FE6BC06DE28FE491E033
:1005D0000E94FF0022273327A9012C193D094E094B
:1005E0005F0919A2CE0181967C01CA01B901A3015C
:1005F00092010E949C03605DF70162937F012115C7
:1006000031054105510589F7E114F10419F0C701DD
:100610000E94910183E291E00E949101602F8FE49A
:1006200091E00E94FF0083E291E00E949101013677
:10063000110529F461E68FE491E00E94FF000E9419
:100640006C014B015C0180EDC82E87E0D82EE12CB7
:10065000F12C0E946C01681979098A099B09683E8E
:10066000734081059105A8F3F1E0CF1AD108E108A4
:10067000F10828EE820E23E0921EA11CB11CC114C9
:10068000D104E104F10429F72114310409F48BCFDA
:100690000E94C900882309F486CF0E94000083CFFE
:1006A000A701960119A2CE0181967C01CA01B90168
:1006B000A30192010E949C03605DF70162937F0198
:1006C000211531054105510589F79ECF86E291E05C
:1006D0000E94910183E291E00E949101B0CFEFE48A
:1006E000F1E01382128288EE93E0A0E0B0E0848310
:1006F0009583A683B78384E091E09183808385EC22
:1007000090E09587848784EC90E09787868780ECDB
:1007100090E0918B808B81EC90E0938B828B82ECCC
:1007200090E0958B848B86EC90E0978B868B118E76
:10073000128E138E148E0895A1E21A2EAA1BBB1BD3
:10074000FD010DC0AA1FBB1FEE1FFF1FA217B3079D
:10075000E407F50720F0A21BB30BE40BF50B661FB3
:10076000771F881F991F1A9469F760957095809577
:1007700090959B01AC01BD01CF010895EE0FFF1FC5
:0C0780000590F491E02D0994F894FFCF4F
:10078C0000000000FF005F008C004C01BD009B00CE
:10079C00AF00506F7274205365726965204E61749E
:1007AC006966000D0A005269656E207265637520DA
:1007BC00737572206C6520706F7274204E61746951
:0607CC00662052580000F7
:00000001FF
